:020000040800F2
:10000000700800204905000865050008690500081A
:100010006D05000871050008750500080000000066
:10002000000000000000000000000000790500084A
:100030007D0500080000000081050008E1010008BE
:10004000890500088D050008910500089505000840
:10005000990500089D050008A1050008A5050008F0
:10006000A9050008AD050008B1050008B5050008A0
:10007000B905000821040008C1050008C5050008ED
:10008000C9050008CD050008D1050008D505000800
:10009000D9050008DD050008E1050008E5050008B0
:1000A000E9050008ED050008F1050008F505000860
:1000B000F9050008FD05000801060008050600080E
:1000C000090600080D0600081106000815060008BC
:1000D000190600081D06000821060008250600086C
:1000E000290600082D06000831060008374A38495D
:1000F00082B0106840F001001060536835480B4032
:1001000053600023D2F800C000EA0C0CC2F800C013
:10011000116821F4802111604FF41F01506820F410
:10012000FE005060916000930193136843F48033A4
:100130001360106800F4003001900098401C00909B
:10014000019818B90098B0F5A06FF2D11068400C72
:1001500000F0010001900198012830D11E4801688B
:1001600041F01001016003689B089B000360016877
:1001700041F0020101605068506051685160506860
:1001800040F480605060506820F47C1050605068EB
:1001900040F4E8105060116841F0807111601068FF
:1001A0008101FCD55068800880005060506840F0A4
:1001B00002005060506800F00C000828FAD14FF09F
:1001C00000600649086002B070470000001002405D
:1001D0000000FFF8FFFFF6FE0020024008ED00E0FF
:1001E00031480168491C016070473048304941601E
:1001F000002282600721016070474FF0804000219B
:100200000180232202851F2383850121818247F2F9
:10021000700282834FF4445101841E22254B828751
:100220001F2119801022828017E0234800210180BD
:100230002322028503238385012181824FF4C0415B
:1002400082891E4B42F48052828181834FF4805216
:1002500002840221198015220281012181820288F3
:1002600042F0010202807047154900220A800A828A
:1002700048F69F4CFFE74000A1F828C0401E888543
:10028000012088824FF6FE700A8A02400A820B889B
:1002900043F001030B80088AC207FCD54FF6FE70BD
:1002A0000B8803400B8070476C00002010E000E0DA
:1002B0003F1901004000004000040040400400409D
:1002C000000800402448416841F004014160416851
:1002D00041F008014160416841F0100141608168CE
:1002E00041F001018160816841F002018160816813
:1002F00041F004018160416841F001014160026800
:1003000042F001020260704714494FF40050086047
:10031000704710B51248134C016841F40071016038
:1003200009220A21204600F021F809220B2120464B
:1003300000F01CF809220121204600F017F80222E3
:100340000021204600F012F8BDE8104001220D21E6
:10035000054800F00BB800001410024000E100E076
:1003600004000140000C0140001001400F23082947
:100370000ADB08398900D0F804C08B402CEA03035B
:100380008A401A43426070478900D0F800C08B4011
:100390002CEA03038A401A430260704770B5FFF7E6
:1003A00091FFFFF7B6FFFFF720FF1A4C1A4E4FF4EC
:1003B0000055256001203060FFF756FF4FF4803074
:1003C00030600120FFF750FFFFF79EFF134E06F14C
:1003D0003001304600F048F8FFF727FFFFF70DFF28
:1003E0004FF000502560317CCA0703D4317C8A0766
:1003F00048BF2060327C510703D4327C110748BFCC
:100400002060717CCA07EDD4717C8A07EAD5206030
:10041000E8E700BF10100140100C01403800002038
:1004200010B41948016841F40071016000201749B7
:100430000A460C6B12F8013B2354401C0C6B12F85B
:10044000013B2354401C0C6B12F8013B2354401C0D
:100450000C6B12F8013B2354401C3028E9DB496B3C
:100460000120087010BC7047084A10635163A22332
:100470000748084981600360C2603021416002681A
:1004800042F00102026070470400024000000020B8
:10049000300002400808014030B4002513E050F855
:1004A000042BD30744BFA9F101039A18091F04299B
:1004B00042F8045BFAD213468C0744BF15809B1C9C
:1004C000C90748BF1D7050F8041B0029E7D130BC94
:1004D0007047000010B5074979441831064C7C4438
:1004E000163404E00A68081D114488470146A142F9
:1004F000F8D110BD08000000140000009DFFFFFFB0
:100500007000000000000020000000000120C04634
:10051000002801D0FFF7DEFFAFF300800020AFF32B
:100520000080FFF73BFF00F000F800F001B800008A
:100530000746384600F002F8FBE7000020210903D7
:1005400026311820ABBEF9E7014880470148004733
:10055000ED00000859050008AFF30080AFF30080FC
:10056000FFF7D4FFFFF7FEBFFFF7FEBFFFF7FEBFA9
:10057000FFF7FEBFFFF7FEBFFFF7FEBFFFF7FEBFAF
:10058000FFF7FEBFFFF72CBEFFF7FEBFFFF7FEBF72
:10059000FFF7FEBFFFF7FEBFFFF7FEBFFFF7FEBF8F
:1005A000FFF7FEBFFFF7FEBFFFF7FEBFFFF7FEBF7F
:1005B000FFF7FEBFFFF7FEBFFFF7FEBFFFF730BF3D
:1005C000FFF7FEBFFFF7FEBFFFF7FEBFFFF7FEBF5F
:1005D000FFF7FEBFFFF7FEBFFFF7FEBFFFF7FEBF4F
:1005E000FFF7FEBFFFF7FEBFFFF7FEBFFFF7FEBF3F
:1005F000FFF7FEBFFFF7FEBFFFF7FEBFFFF7FEBF2F
:10060000FFF7FEBFFFF7FEBFFFF7FEBFFFF7FEBF1E
:10061000FFF7FEBFFFF7FEBFFFF7FEBFFFF7FEBF0E
:10062000FFF7FEBFFFF7FEBFFFF7FEBFFFF7FEBFFE
:04063000FFF7FEBF13
:040000050800055991
:00000001FF
